{"abi":[{"type":"constructor","inputs":[],"stateMutability":"nonpayable"},{"type":"function","name":"balanceOf","inputs":[{"name":"_address","type":"address","internalType":"address"}],"outputs":[{"name":"","type":"uint256","internalType":"uint256"}],"stateMutability":"view"},{"type":"function","name":"claimRewards","inputs":[],"outputs":[],"stateMutability":"nonpayable"},{"type":"function","name":"getRewards","inputs":[{"name":"_address","type":"address","internalType":"address"}],"outputs":[{"name":"","type":"uint256","internalType":"uint256"}],"stateMutability":"view"},{"type":"function","name":"owner","inputs":[],"outputs":[{"name":"","type":"address","internalType":"address"}],"stateMutability":"view"},{"type":"function","name":"renounceOwnership","inputs":[],"outputs":[],"stateMutability":"nonpayable"},{"type":"function","name":"rewardRate","inputs":[],"outputs":[{"name":"","type":"uint256","internalType":"uint256"}],"stateMutability":"view"},{"type":"function","name":"setOrcaAddress","inputs":[{"name":"_orcaAddress","type":"address","internalType":"address"}],"outputs":[],"stateMutability":"nonpayable"},{"type":"function","name":"stake","inputs":[],"outputs":[],"stateMutability":"payable"},{"type":"function","name":"transferOwnership","inputs":[{"name":"newOwner","type":"address","internalType":"address"}],"outputs":[],"stateMutability":"nonpayable"},{"type":"function","name":"unstake","inputs":[{"name":"_amount","type":"uint256","internalType":"uint256"}],"outputs":[],"stateMutability":"nonpayable"},{"type":"event","name":"OwnershipTransferred","inputs":[{"name":"previousOwner","type":"address","indexed":true,"internalType":"address"},{"name":"newOwner","type":"address","indexed":true,"internalType":"address"}],"anonymous":false},{"type":"error","name":"OwnableInvalidOwner","inputs":[{"name":"owner","type":"address","internalType":"address"}]},{"type":"error","name":"OwnableUnauthorizedAccount","inputs":[{"name":"account","type":"address","internalType":"address"}]}],"bytecode":{"object":"0x6080604052657e5196e2ae38600355348015610019575f5ffd5b50335f73ffffffffffffffffffffffffffffffffffffffff168173ffffffffffffffffffffffffffffffffffffffff160361008b575f6040517f1e4fbdf700000000000000000000000000000000000000000000000000000000815260040161008291906101a0565b60405180910390fd5b61009a816100a060201b60201c565b506101b9565b5f5f5f9054906101000a900473ffffffffffffffffffffffffffffffffffffffff169050815f5f6101000a81548173ffffffffffffffffffffffffffffffffffffffff021916908373ffffffffffffffffffffffffffffffffffffffff1602179055508173ffffffffffffffffffffffffffffffffffffffff168173ffffffffffffffffffffffffffffffffffffffff167f8be0079c531659141344cd1fd0a4f28419497f9722a3daafe3b4186f6b6457e060405160405180910390a35050565b5f73ffffffffffffffffffffffffffffffffffffffff82169050919050565b5f61018a82610161565b9050919050565b61019a81610180565b82525050565b5f6020820190506101b35f830184610191565b92915050565b610ef6806101c65f395ff3fe608060405260043610610090575f3560e01c806379ee54f71161005857806379ee54f71461012e5780637b0a47ee1461016a5780637d4a4744146101945780638da5cb5b146101bc578063f2fde38b146101e657610090565b80632e17de7814610094578063372500ab146100bc5780633a4b66f1146100d257806370a08231146100dc578063715018a614610118575b5f5ffd5b34801561009f575f5ffd5b506100ba60048036038101906100b59190610c68565b61020e565b005b3480156100c7575f5ffd5b506100d0610436565b005b6100da61064c565b005b3480156100e7575f5ffd5b5061010260048036038101906100fd9190610ced565b61087d565b60405161010f9190610d27565b60405180910390f35b348015610123575f5ffd5b5061012c6108c3565b005b348015610139575f5ffd5b50610154600480360381019061014f9190610ced565b6108d6565b6040516101619190610d27565b60405180910390f35b348015610175575f5ffd5b5061017e6109e6565b60405161018b9190610d27565b60405180910390f35b34801561019f575f5ffd5b506101ba60048036038101906101b59190610ced565b6109ec565b005b3480156101c7575f5ffd5b506101d0610a37565b6040516101dd9190610d4f565b60405180910390f35b3480156101f1575f5ffd5b5061020c60048036038101906102079190610ced565b610a5e565b005b8060045f3373ffffffffffffffffffffffffffffffffffffffff1673ffffffffffffffffffffffffffffffffffffffff1681526020019081526020015f20541015610257575f5ffd5b670de0b6b3a764000060035460045f3373ffffffffffffffffffffffffffffffffffffffff1673ffffffffffffffffffffffffffffffffffffffff1681526020019081526020015f205460065f3373ffffffffffffffffffffffffffffffffffffffff1673ffffffffffffffffffffffffffffffffffffffff1681526020019081526020015f2054426102ea9190610d95565b6102f49190610dc8565b6102fe9190610dc8565b6103089190610e36565b60055f3373ffffffffffffffffffffffffffffffffffffffff1673ffffffffffffffffffffffffffffffffffffffff1681526020019081526020015f205f8282546103539190610e66565b925050819055504260065f3373ffffffffffffffffffffffffffffffffffffffff1673ffffffffffffffffffffffffffffffffffffffff1681526020019081526020015f20819055503373ffffffffffffffffffffffffffffffffffffffff166108fc8290811502906040515f60405180830381858888f193505050501580156103df573d5f5f3e3d5ffd5b508060045f3373ffffffffffffffffffffffffffffffffffffffff1673ffffffffffffffffffffffffffffffffffffffff1681526020019081526020015f205f82825461042c9190610d95565b9250508190555050565b5f60055f3373ffffffffffffffffffffffffffffffffffffffff1673ffffffffffffffffffffffffffffffffffffffff1681526020019081526020015f205490505f60065f3373ffffffffffffffffffffffffffffffffffffffff1673ffffffffffffffffffffffffffffffffffffffff1681526020019081526020015f205490505f670de0b6b3a764000060035460045f3373ffffffffffffffffffffffffffffffffffffffff1673ffffffffffffffffffffffffffffffffffffffff1681526020019081526020015f2054844261050f9190610d95565b6105199190610dc8565b6105239190610dc8565b61052d9190610e36565b905060025f9054906101000a900473ffffffffffffffffffffffffffffffffffffffff1673ffffffffffffffffffffffffffffffffffffffff166340c10f193385846105799190610e66565b6040518363ffffffff1660e01b8152600401610596929190610e99565b5f604051808303815f87803b1580156105ad575f5ffd5b505af11580156105bf573d5f5f3e3d5ffd5b505050505f60055f3373ffffffffffffffffffffffffffffffffffffffff1673ffffffffffffffffffffffffffffffffffffffff1681526020019081526020015f20819055504260065f3373ffffffffffffffffffffffffffffffffffffffff1673ffffffffffffffffffffffffffffffffffffffff1681526020019081526020015f2081905550505050565b5f3411610657575f5ffd5b5f60065f3373ffffffffffffffffffffffffffffffffffffffff1673ffffffffffffffffffffffffffffffffffffffff1681526020019081526020015f2054146106e2574260065f3373ffffffffffffffffffffffffffffffffffffffff1673ffffffffffffffffffffffffffffffffffffffff1681526020019081526020015f2081905550610828565b670de0b6b3a764000060035460045f3373ffffffffffffffffffffffffffffffffffffffff1673ffffffffffffffffffffffffffffffffffffffff1681526020019081526020015f205460065f3373ffffffffffffffffffffffffffffffffffffffff1673ffffffffffffffffffffffffffffffffffffffff1681526020019081526020015f2054426107759190610d95565b61077f9190610dc8565b6107899190610dc8565b6107939190610e36565b60055f3373ffffffffffffffffffffffffffffffffffffffff1673ffffffffffffffffffffffffffffffffffffffff1681526020019081526020015f205f8282546107de9190610e66565b925050819055504260065f3373ffffffffffffffffffffffffffffffffffffffff1673ffffffffffffffffffffffffffffffffffffffff1681526020019081526020015f20819055505b3460045f3373ffffffffffffffffffffffffffffffffffffffff1673ffffffffffffffffffffffffffffffffffffffff1681526020019081526020015f205f8282546108749190610e66565b92505081905550565b5f60045f8373ffffffffffffffffffffffffffffffffffffffff1673ffffffffffffffffffffffffffffffffffffffff1681526020019081526020015f20549050919050565b6108cb610ae2565b6108d45f610b69565b565b5f5f60055f8473ffffffffffffffffffffffffffffffffffffffff1673ffffffffffffffffffffffffffffffffffffffff1681526020019081526020015f205490505f60065f8573ffffffffffffffffffffffffffffffffffffffff1673ffffffffffffffffffffffffffffffffffffffff1681526020019081526020015f205490505f670de0b6b3a764000060035460045f8873ffffffffffffffffffffffffffffffffffffffff1673ffffffffffffffffffffffffffffffffffffffff1681526020019081526020015f205484426109b09190610d95565b6109ba9190610dc8565b6109c49190610dc8565b6109ce9190610e36565b905080836109dc9190610e66565b9350505050919050565b60035481565b6109f4610ae2565b8060025f6101000a81548173ffffffffffffffffffffffffffffffffffffffff021916908373ffffffffffffffffffffffffffffffffffffffff16021790555050565b5f5f5f9054906101000a900473ffffffffffffffffffffffffffffffffffffffff16905090565b610a66610ae2565b5f73ffffffffffffffffffffffffffffffffffffffff168173ffffffffffffffffffffffffffffffffffffffff1603610ad6575f6040517f1e4fbdf7000000000000000000000000000000000000000000000000000000008152600401610acd9190610d4f565b60405180910390fd5b610adf81610b69565b50565b610aea610c2a565b73ffffffffffffffffffffffffffffffffffffffff16610b08610a37565b73ffffffffffffffffffffffffffffffffffffffff1614610b6757610b2b610c2a565b6040517f118cdaa7000000000000000000000000000000000000000000000000000000008152600401610b5e9190610d4f565b60405180910390fd5b565b5f5f5f9054906101000a900473ffffffffffffffffffffffffffffffffffffffff169050815f5f6101000a81548173ffffffffffffffffffffffffffffffffffffffff021916908373ffffffffffffffffffffffffffffffffffffffff1602179055508173ffffffffffffffffffffffffffffffffffffffff168173ffffffffffffffffffffffffffffffffffffffff167f8be0079c531659141344cd1fd0a4f28419497f9722a3daafe3b4186f6b6457e060405160405180910390a35050565b5f33905090565b5f5ffd5b5f819050919050565b610c4781610c35565b8114610c51575f5ffd5b50565b5f81359050610c6281610c3e565b92915050565b5f60208284031215610c7d57610c7c610c31565b5b5f610c8a84828501610c54565b91505092915050565b5f73ffffffffffffffffffffffffffffffffffffffff82169050919050565b5f610cbc82610c93565b9050919050565b610ccc81610cb2565b8114610cd6575f5ffd5b50565b5f81359050610ce781610cc3565b92915050565b5f60208284031215610d0257610d01610c31565b5b5f610d0f84828501610cd9565b91505092915050565b610d2181610c35565b82525050565b5f602082019050610d3a5f830184610d18565b92915050565b610d4981610cb2565b82525050565b5f602082019050610d625f830184610d40565b92915050565b7f4e487b71000000000000000000000000000000000000000000000000000000005f52601160045260245ffd5b5f610d9f82610c35565b9150610daa83610c35565b9250828203905081811115610dc257610dc1610d68565b5b92915050565b5f610dd282610c35565b9150610ddd83610c35565b9250828202610deb81610c35565b91508282048414831517610e0257610e01610d68565b5b5092915050565b7f4e487b71000000000000000000000000000000000000000000000000000000005f52601260045260245ffd5b5f610e4082610c35565b9150610e4b83610c35565b925082610e5b57610e5a610e09565b5b828204905092915050565b5f610e7082610c35565b9150610e7b83610c35565b9250828201905080821115610e9357610e92610d68565b5b92915050565b5f604082019050610eac5f830185610d40565b610eb96020830184610d18565b939250505056fea2646970667358221220333a66901c44ad29a66e31d128c62cf982374926b555f0dc25d6f5a6838b02aa64736f6c634300081e0033","linkReferences":{}},"methodIdentifiers":{"balanceOf(address)":"70a08231","claimRewards()":"372500ab","getRewards(address)":"79ee54f7","owner()":"8da5cb5b","renounceOwnership()":"715018a6","rewardRate()":"7b0a47ee","setOrcaAddress(address)":"7d4a4744","stake()":"3a4b66f1","transferOwnership(address)":"f2fde38b","unstake(uint256)":"2e17de78"},"id":6}